:020000040800F2
:1000000048450020DD02000853400008AF340008D6
:10001000514000088B1F0008CD4700080000000079
:10002000000000000000000000000000094300087C
:100030008D1F000800000000554000080B43000819
:10004000F7020008F7020008F7020008F7020008AC
:10005000F7020008F7020008F7020008F70200089C
:10006000F7020008F7020008F7020008F70200088C
:10007000F7020008F7020008F7020008F70200087C
:10008000F7020008F7020008F7020008F70200086C
:10009000F7020008F7020008F7020008F70200085C
:1000A000F7020008F7020008F7020008F70200084C
:1000B000F7020008F7020008F7020008BD34000844
:1000C000B1340008F7020008F7020008F702000840
:1000D000F7020008F7020008F7020008F70200081C
:1000E000F7020008F7020008F7020008F70200080C
:1000F000F7020008F7020008F7020008F7020008FC
:10010000F7020008F7020008F7020008F7020008EB
:10011000F7020008F7020008F7020008F7020008DB
:10012000F7020008F7020008F7020008F7020008CB
:10013000F7020008F7020008F7020008F7020008BB
:10014000F7020008F7020008F7020008F7020008AB
:10015000F7020008F7020008F7020008F70200089B
:10016000F7020008F7020008F7020008F70200088B
:10017000F7020008F7020008F7020008000000007C
:10018000F7020008F702000800F002F800F096F805
:100190000AA090E8000C82448344AAF10107DA45E2
:1001A00001D100F08BF8AFF2090EBAE80F0013F09E
:1001B000010F18BFFB1A43F001031847D871000064
:1001C000F8710000103A24BF78C878C1FAD85207F5
:1001D00024BF30C830C144BF04680C6070470000C1
:1001E0000023002400250026103A28BF78C1FBD840
:1001F000520728BF30C148BF0B6070476E2900F01E
:10020000BD82702900F00384662905F0BC8265294F
:1002100005F0B982672905F0B682612905F0B5823B
:1002200003681B0A28BF41F08001692900F06A8237
:10023000642900F06782752900F064826F2900F05C
:100240009083782900F0CF83E92900F02B83E429FB
:1002500000F02883F52900F02583EF2900F08D8335
:10026000F82900F0CE830368DB0928BF41F0800144
:10027000632901F0F880732901F0FD80E32901F082
:100280000881F32901F00D81002070471FB505F0AA
:1002900075FA9DE8030000F09DF901F05BF9040098
:1002A0000020002105F054FA401C6060002000216D
:1002B00005F038FAE0601FBD10B510BD01F01DF962
:1002C0001146FFF7E3FF04F0B1FA01F0F9F903B4C6
:1002D000FFF7F2FF03BC01F029FA0000094880474C
:1002E00009480047FEE7FEE7FEE7FEE7FEE7FEE718
:1002F000FEE7FEE7FEE7FEE704480549054A064B30
:10030000704700008143000889010008480500206B
:1003100048450020482500204825002070B50646A5
:1003200000F03CF9056806F10B0020F00704B44228
:100330009CBF002070BD2B466A68BAB11068A0420D
:1003400010D304F1080188423CBF5068586007D3BD
:100350005168101941601168091B016058601460F0
:10036000101D70BD13465268002AE7D12146284669
:1003700000F01CF90028DED170BD70B50446051FE1
:1003800000F00CF90068002C14BF446870BD002C0C
:1003900018BFAC423CBF20466468F8D301680A1815
:1003A000AA4218BF456003D12A680546114401607E
:1003B00028684119A1421CBF6C6070BD616869600A
:1003C00021680844286070BD53EA020C00F069807F
:1003D0002DE9F04B4FF00006002B1FBFB3FA83F559
:1003E00003FA05F424FA05F65E4012BF1643B2FA8A
:1003F00082F502FA05F4C5F120051EBF22FA05FCBC
:1004000044EA0C04203556EA044C4FEA144418BF61
:10041000641C4FF000084FF00009904271EB030C90
:1004200039D3002919BFB1FA81F701FA07F6B0FAFA
:1004300080F700FA07F6C7F120071EBF20FA07FC75
:1004400046EA0C062037B6FBF4FCA7EB0507103F85
:1004500007F01F0BCBF120060CFA0BFB2CFA06F66B
:1004600044BFB3460026202FA4BF5E464FF0000BCA
:100470005BEA060C08BF4FF0010B19EB0B09ABFB55
:10048000027C48EB0608C01B06FB02CC0BFB03CC2E
:1004900071EB0C01C1E70B46024641464846BDE8F8
:1004A000F08B13B54FF000004FF00001AFF3008068
:1004B000BDE81C40704700001CB50C46064B7B4451
:1004C00069460090204600F072F904460020694613
:1004D00000F080F920461CBD130300000FB41CB5CA
:1004E000084B06AA7B4469460090059800F05FF926
:1004F00004460020694600F06DF920461CBC5DF8FA
:1005000014FB0000ED02000010B5431C02E010F8DF
:10051000011B71B18107FAD14FF0013202C88C1A68
:100520008C4314EAC211F9D0C01A0A0603D0C01EC7
:1005300010BDC01A10BD0A0401D0801E10BD0902F2
:10054000FCD0401E10BD4FF0000200B5134694468B
:100550009646203922BFA0E80C50A0E80C50B1F11B
:100560002001BFF4F7AF090728BFA0E80C5048BF2F
:100570000CC05DF804EB890028BF40F8042B08BFCD
:10058000704748BF20F8022B11F0804F18BF00F8C9
:10059000012B704770477047704700000048704754
:1005A000EC040020704770477047704738B5044628
:1005B0000A4600206946AFF30080002808BF38BD16
:1005C00002460099204600F0F9FA012038BD0120CA
:1005D00000F08BBFF8B5AFF30080054600200C4655
:1005E000102000BF0646A819A0420DD93246694620
:1005F0000020AFF30080070008BF00F076FF0098EE
:10060000A04218BF0546C419FFF7C8FF056007469A
:10061000F01D20F007004619284600F00AF8B44201
:1006200008BFF8BDA21B31463868BDE8F84000F0AD
:10063000C5BA00210160C0E9011070471020704761
:1006400070B5044685690068C10601D5302600E012
:100650002026C00707D070BDD4E90121304690475D
:10066000206A401C20626D1EF6D570BD70B5044630
:1006700085690078C00707D170BDD4E90121202029
:100680009047206A401C20626D1EF6D570BD096837
:100690004A0501D540B27047C905FCD500B2704784
:1006A00009684A0501D5C0B27047C905FCD580B2BA
:1006B000704770B50C460546012A05D0287880069B
:1006C00000D5EA69002302E0012305E05B1C9342A8
:1006D00002D2E05C0028F9D1A869E618C01AA86126
:1006E000286A184428622846FFF7AAFF04E0D5E9E3
:1006F000012114F8010B9047B442F8D32846FFF7C4
:10070000B5FF70BD2DE9F04106460024106875293B
:10071000314616A510D0FFF7BAFF002802DA404292
:1007200013A507E031688A0701D512A502E0490741
:1007300004D511A5012401E0FFF7B2FF00210A2230
:1007400006F1240709E0B0FBF2FCB0FBF2F302FB78
:100750001C00303078541846491C0028F3D1234639
:100760002A463046BDE8F04100F087BA000000009C
:100770002D0000002B00000020000000116802681E
:10078000006A530501D508700AE0D30501D5088039
:1007900006E0130603D5C217C1E9000200E00860B5
:1007A0000120704701694A1C02610878704700B552
:1007B0008FB0CDE901310021059105497944CDE99A
:1007C00003101146684600F02DF90FB000BD00007F
:1007D000E5FFFFFF0A6802F8010B0A60704700009E
:1007E0002DE9FF5F15468A460446DFF8AC80F844E1
:1007F0000027D8E900103E46CDE9001010E03AF895
:1008000016106A4602A800F050FE411C07D021785D
:10081000890603D5E269391891420DD80744761C40
:100820002078800602D5E069B84205DDAE42E6DBFD
:100830003AF816000028E2D1A069C01BA06120464A
:10084000FFF7FEFED8E90010CDE90010002017E008
:100850003AF818106A4602A800F027FEB0F1FF3FF0
:1008600081460BD000250DF1080B05E0D4E90121EC
:100870001BF8050090476D1C4D45F7D308F10100AA
:10088000B0428046E4DB206A384420622046FFF70D
:10089000EDFE00F003B80000CA6900003FBCBDE8EF
:1008A000C09F00002DE9F0418046D21D22F00702D2
:1008B0000025D2E90002F52915A614D0011E72F117
:1008C000000106DA0023D0EB030063EB020211A65D
:1008D00008E0D8F800108B0701D50FA602E0490701
:1008E00001D50EA601251146002408F1240704E0D5
:1008F00000F07EF930323A55641C50EA0102F7D11B
:100900002B46324621464046BDE8F04100F0B5B9DD
:10091000000000002D0000002B000000200000005F
:1009200030B4002100F1240408E002F00705D208E9
:10093000303542EA4372DB086554491C52EA03052C
:10094000F3D10468002310A2250707D5A40600D41C
:1009500021B1C46901230DA2641EC46130BC00F042
:100960008CB910B5044621461068FFF799FE02467F
:100970002046BDE810400023D2E7D21D22F0070137
:10098000D1E90023CCE700000000000030000000A7
:10099000F0B40D460188090502D5214C7C4402E0E3
:1009A0001F4C7C440E34002100F1240608E002F0C4
:1009B0000F071209E75D42EA03721B097754491CCD
:1009C00052EA0307F3D102780023120704D5702DF1
:1009D00006D009B1022311342246F0BC00F04DB913
:1009E00001231034F8E770B504460D46214610681F
:1009F000FFF756FE024629462046BDE87040002318
:100A0000C6E7D21D22F00703D3E90023C0E703683D
:100A1000126843F0200303600823C3610023B7E793
:100A2000246800002DE9F05F894604464FF0000A73
:100A3000DFF874B1FB44C0F820A02046E168884785
:100A4000002874D0252806D0D4E901219047206AD7
:100A5000401C2062F1E700265F462046E168884797
:100A60002028054607DB312D05D2781910F8200C17
:100A700008B10643F1E7B00701D526F00406C4F833
:100A80001CA00027C4F818A02A2D09D0284603F07E
:100A9000C6FE38B304EB8708303DC8F8185019E09B
:100AA00059F8041B204604EB87029161E1688847EE
:100AB000012F054618D1E069002820DA26F020062B
:100AC0001DE0D8F8180000EB800005EB400030383E
:100AD000C8F818002046E1688847054603F09FFEE5
:100AE0000028EED1012F0AD02E2D08D12046E16832
:100AF00088477F1C0546022F46F02006C4DBA0690C
:100B0000002803DA404246F00106A061F00701D058
:100B100026F010066C2D0BD0682D09D04C2D39D045
:100B20006A2D35D0742D35D07A2D33D016E038E0CB
:100B3000E1682F4620468847B842054609D16C2F08
:100B400026D04FF48060E16806432046884705467A
:100B500004E06C2F1AD04FF4807006430DB3A5F15A
:100B60004100192802D8203546F400664A46294635
:100B7000204626604E46FFF741FB80B101280BD08E
:100B8000F61D26F0070000F1080956E74020E4E7CB
:100B90008020D8E70020D6E706F104094DE7284673
:100BA00052E7206A00F002B8B467000030BCBDE82C
:100BB000C09F000000487047E404002003464068DE
:100BC0008C46002818BF88423CBF03464068F8D3D3
:100BD00018681844884207D00CF1030020F0070081
:100BE000001D411A521A0146081D0A60FFF7C5BBD5
:100BF00030B5B0F10A024FEA900E71F100034EEAEF
:100C0000817EB0EB0E0061EB91014FEA101E4EEABF
:100C1000017E10EB0E0041EB11114FEA102E4EEA4F
:100C2000016E10EB0E0041EB11214FEA104E4EEA1F
:100C3000014E10EB0E0041EB1141401841F1000153
:100C40004FEAD00040EA41704FEAD10110EB800535
:100C50004FEA810444EA907444EB01046D1944EBBB
:100C60000404521BA3414FF0000348BF0A3200D5D1
:100C700030BD401C41F1000130BD2DE9F0470D466B
:100C800099469246044600F124080168880604D576
:100C9000E06921F01001216000E00120A84201DD9F
:100CA000471B00E00027A1697A1902EB0900081A26
:100CB000A0612078C00602D42046FFF7C1FC0026C0
:100CC00008E0D4E901211AF806009047206A401C88
:100CD000761C20624E45F4DB2078C0060AD52046FB
:100CE000FFF7AEFC06E0D4E9012130209047206AEE
:100CF000401C2062381EA7F10107F4DC07E0D4E9AC
:100D0000012118F805009047206A401C2062281E27
:100D1000A5F10105F3DC2046FFF7A8FC20780006CA
:100D200002D50220BDE8F0870120FBE770472DE9DE
:100D3000FF4F0C461E464FF0FF378BB0D2E9000143
:100D4000DDF860800A908A46C1F30A5505B93D4630
:100D5000002108464FF00000BAF1000F00F44000F7
:100D600005DA00EB80004FF4400101EA50004FEA41
:100D70009059B9F1010F00DDB9460A9850EA4A00CE
:100D80000ED044F61050A5F2FF3545432F14B8F1AC
:100D9000000F1ED07542291E1EDDC9F100021CE0A5
:100DA000B8F1010F4FF0000001D0302103E0F24311
:100DB00005E02154401CB042FBDB304600220021FC
:100DC00021540B99C1F80880C1E900200FB000F050
:100DD000BCB9BD1B6D1CDEE74A4600DA694206A8B5
:100DE00000F0FCFB06AB93E8070003AB83E80700C9
:100DF00050460A9900F001FD8DE80700A0F500506B
:100E00001F3800900398002D0ADD42F21F014A4668
:100E10000844002303A90390684600F06AFF09E034
:100E2000A0F500504A461F38002303A903906846E6
:100E300000F074FF8DE807000004000C03D04FF0B1
:100E4000FF30410800E01046B8F1000F03D0002247
:100E5000009215461EE0751E05D4FFF7C9FE30321C
:100E600062556D1EF9D5B3460122084302D0002217
:100E70007F1C04E02078302801D100227F1E002A48
:100E8000099784D01DE0112D07DAFFF7B1FE30324B
:100E900062556D1C50EA0102F5D1084302D000985A
:100EA000C8B10EE00021681E05E0235C625C63545B
:100EB0002254401E491C8142F7DBAB46A81B401E52
:100EC0000990002004F80B000B98099AC0F80880DC
:100ED000C0E9002B7AE711264FF0000857E72DE90B
:100EE000F04F88460446D21D22F0070191B0D1E9A7
:100EF0000001CDE90A0103F06AFC02460B98C00F1D
:100F000001D02D2007E02068810701D52B2002E0C9
:100F1000202101EAC000032A099001D0072A05DB3D
:100F200003464146204600F019FB0BE1207880067D
:100F300001D5E06900E00620B8F1650F814606D0D2
:100F4000B8F1660F18D0B8F1670F70D131E000200A
:100F5000B9F1110F009001DB112301E009F1010348
:100F60000AAA01A90CA8FFF7E2FEDDE90C70002631
:100F700009F10105834647E001204B4600904FF000
:100F800000470AAA01A90CA8FFF7D1FEDDE90DB0C0
:100F90000C995D46002610B909F101000D18B9EB56
:100FA000050003D4C0F1FF3609F10105A5EB0900E6
:100FB0002BE0B9F1010F01DA4FF001090020B9F17E
:100FC000110F0090484601DD112300E003460AAAF4
:100FD00001A90CA8FFF7ABFEDDE90C704D46002619
:100FE0008346207800070AD4AB4500DA5D4601A8A5
:100FF000012D04DD411911F8011C302907D04F459E
:1010000002DA17F1040F04DA012082460FE06D1EA8
:10101000EEE7002F02DCED1B3E4403E0781CA84203
:1010200000DD7D1CB81B00F1010A4FF0004720785D
:10103000000703D4AA4501DB4FF0FF3A0021B7F1C6
:10104000004F0DF143088DF8431024D002202B23CC
:10105000002F01DA7F422D230A21021EA0F1010098
:1010600000DC5FB197FBF1FC97FBF1F201FB1C7C0C
:1010700017460CF1300C08F801CDEEE7A8F101009D
:1010800003702188090501D5452100E06521A0F103
:10109000010800F8011C09980FA9A1EB0807FF1D22
:1010A00000B10120411901EBEA70A1693844081A26
:1010B000401EA0612078C00602D42046FFF7C0FA87
:1010C000099828B1D4E901219047206A401C206288
:1010D0002078C00622D52046FFF7B2FA1EE0002E87
:1010E00004DBB34502DD01A8805D00E03020D4E9D7
:1010F00001219047206A401C2062761CAAF1010061
:101100005FEA000A0AD100F025FAC0680168405C75
:10111000D4E901219047206A401C2062281EA5F1D5
:101120000105DCDC07E0D4E9012118F8010B904748
:10113000206A401C2062381EA7F10107F3DC20461C
:10114000FFF794FA032011B041E630BCBDE8C08F30
:101150002DE9F04F04460D46D21D22F0070089B05C
:10116000D0E900974846394603F031FB0246F80FB4
:1011700001D02D2307E02068810701D52B2302E051
:10118000202101EAC0038DF820300BB1012000E0DE
:101190000020032A824601D0072A04DB2946204684
:1011A00000F0DCF93FE12078800601D40D2500E055
:1011B000E569C7F30A560D2D49DA00214FEA175B9E
:1011C00008464FF00000002F00F4400007DA00EB63
:1011D00080004FF4400100EBD07001EA60008115FF
:1011E000012901DD4FF0FF3100224FEA850CBCF1EF
:1011F000180F06D31346ACF118004FF08052C240CE
:1012000003E04FF4801323FA0CF30CF10C0CBCF147
:10121000200F04D3ACF1200C09FA0CF001E007FA1E
:101220000CF000294FF0004801DD18B90FE00ED195
:1012300040450CD319EB02095F4121B9404502D169
:101240009F4329EA0209BBEB175F00D0761C208878
:10125000000502D57B48784402E07A487844193882
:1012600008AA302302F80A30037C0AF10101002E9B
:101270000AF1020A53546A4602DC4FF0300101E0E1
:101280004FF031014FF001088DF8001002D0A6F2A6
:10129000FF3603E059EA470100D06B4E002D02DC17
:1012A0002178090704D54FF002082E218DF801108E
:1012B000C44600210BE0C7F303433F01C35C491C54
:1012C0006D1E02F80830052908F1010801DA002D29
:1012D000F1DC00210CE000EB1973491C1B786D1E3A
:1012E000082902F808304FEA091908F1010801DA63
:1012F000002DF0DC21688B0602D516E0A8F101086C
:10130000E04505DD02EB080313F8013C302BF5D076
:10131000B8F1000F09DD02EB080313F8013C2E2B96
:1013200003D1090701D4A8F10108002D05DD3E21F4
:1013300002F808106D1E08F10108407C002E02F82A
:10134000080008F1010804DA2D20764202F80800AE
:1013500002E02B2002F808000A214FF47A7086423E
:1013600008F101080BDB96FBF0F3303302F808308C
:1013700096FBF0F308F1010800FB136601E0642E10
:101380000CDB642096FBF0F3303302F8083096FB58
:10139000F0F308F1010800FB136601E00A2E06DBFA
:1013A00096FBF1F0303002F8080008F1010896FBD6
:1013B000F1F001FB1060303002F80800A16908F17B
:1013C000010808EB050202EB0A00081AA061207868
:1013D000C00602D42046FFF733F9216A08AE01EBBC
:1013E0000A00206204E0D4E9012116F8010B9047BD
:1013F000BAF1010AF7D22078C00602D52046FFF7DD
:101400001FF96E4609E016F8010B3E280FD0D4E90B
:1014100001219047206A401C2062B8F10108F2D2F5
:101420002046FFF723F909B0032000F00FB8206A27
:101430002844206203E0D4E90121302090476D1E4A
:10144000EBD3F8E7B65F000002FCFFFF30BCBDE85D
:10145000C08F10B5436913B1AFF3008001E0FFF70F
:1014600028F9012010BD127800F124010A70002231
:101470004A700122EDE711684FF0FF32E9E710B53D
:10148000436913B1AFF3008001E0FFF7A9F9012030
:1014900010BD128800F1240182840022C28401223E
:1014A000EDE711684FF0FF32E9E770B516460C46DC
:1014B000054600F047F8036893F80101012806D0BB
:1014C000FF2C0FD8185D68B101202C7070BDD3F8C7
:1014D00007013246214603F2071303442846BDE8BC
:1014E000704018474FF0FF3070BD10B500F0F6F8AF
:1014F000BDE8104000F0EDB870477546FFF75AFBA5
:10150000AE4605006946534620F00700854618B0F0
:1015100020B5FEF7F1FEBDE820404FF000064FF089
:1015200000074FF000084FF0000B21F00701AC4618
:10153000ACE8C009ACE8C009ACE8C009ACE8C00937
:101540008D46704710B500F005F8001D10BD00BFB6
:101550000142000000487047040500202DE9F041D9
:101560001F46044603260168072A01F4006004DBD5
:1015700008B116A505E016A503E008B115A500E021
:1015800015A521F010002060A069C01EA0610FB158
:10159000401EA0612046FFF753F84FB1D4E9012166
:1015A00038469047206A401C2062C01C206206E03A
:1015B000206AFAE7D4E9012115F8010B9047761E5D
:1015C000F8D22046FFF752F8BDE8F0814E414E00B8
:1015D0006E616E00494E4600696E66002DE9F04767
:1015E000814616468AB0354878440DC88DE80D000E
:1015F00032487844801C03AC0DC884E80D0041F6E5
:101600009B300844372190FBF1F290FBF1F5A5F1F6
:10161000800501FB12041B3C02D56442012000E05E
:101620000020DFF898A080460027FA44AAF1BE0AFD
:101630000EE0E0070AD03246684607EB4701012377
:101640000AEB810100F06AFB8DE8070064107F1C43
:10165000002CEED1194F7F44AE3F19E0E80715D0BA
:1016600007EB04100DF1180A90E80E008AE80E004E
:10167000C068F04201D1981908903246012306A9AA
:1016800003A800F04BFB03AB83E807006D10641C5C
:10169000002DE3D14FF0010332466946B8F1000F47
:1016A00003A802D000F025FB01E000F037FBC9E9F8
:1016B0000001C9F808200AB0BDE8F087B45C00005A
:1016C00010B50446AFF300802046BDE81040FEF799
:1016D000FEBD002801D000F029B8704710B50128E0
:1016E00005D0002103A000F027F8012010BD09A1BA
:1016F000F8E7000053494752544D454D3A204F7585
:1017000074206F662068656170206D656D6F7279F9
:10171000000000003A2048656170206D656D6F72B1
:101720007920636F727275707465640001491820C6
:10173000ABBEFEE72600020070B505460C460A2047
:1017400000E06D1C00F052F835B128780028F8D17F
:1017500002E0641C00F04AF814B120780028F8D1A7
:10176000BDE870400A2000F041B800004FF0013C95
:1017700050F8042B51F8043B9A4221D1A2EB0C0300
:10178000934313EACC1317D150F8042B51F8043BC0
:101790009A4215D1A2EB0C03934313EACC130BD15D
:1017A00050F8042B51F8043B9A4209D1A2EB0C03E8
:1017B000934313EACC13DBD04FF00000704700BF17
:1017C000D01A01BAB1FA81F101F0180122FA01F040
:1017D000CB40C1F12001DBB2C0B2C01A2CFA01F338
:1017E000D11A914311EAC311E6D1704708B5694691
:1017F0008DF800000320ABBE08BD5FEA400C08BFB7
:1018000091F0000F4FEA8C234FEAC12243EA515175
:101810004FEA1C5018BF00F5F0404FEA300018BFE7
:1018200041F000415FEA6C5C00F02980BCF1FF3FB1
:1018300008BF40F080407047130C06BF12044FF001
:10184000100C4FF0000C130E04BF12020CF1080C28
:10185000130F04BF12010CF1040C930F04BF92008C
:101860000CF1020CD30F04BF52000CF1010C114615
:101870004FF00002A0F11F00A0EB0C00704711F028
:10188000004F08BF704731F000413FF4D5AF0B0C5B
:1018900006BF09044FF0100C4FF0000C0B0E04BFF4
:1018A00009020CF1080C0B0F04BF09010CF1040C28
:1018B0008B0F04BF89000CF1020CCB0F04BF490051
:1018C0000CF1010CCCF12003A0EB0C0022FA03F385
:1018D00002FA0CF241EA030100F10100704720F026
:1018E0007F4C80EA030023F07F47ACEB070303F54E
:1018F0007C5300F0004003F1FF032DE980494FEADB
:10190000154B09B44FEA144325EA0B4E24EA034869
:101910000FF2042606EB132749083E785FEA3202ED
:1019200003FB0667C7F5000707FB06F64FEA5437C7
:101930004FEAD64606F1020607FB066CCCF1005CC6
:101940004FEA1C472CEA074C07FB06F40CFB06F594
:1019500004EB15464FEA961634BF00204FF00040C6
:101960004FEAD13706FB07FC4FEA1C4C0CFB0BF788
:10197000D21B03FB0CF761EB07010CFB0EF7B0EB7E
:10198000074072EB17420CFB08F734BFA2EB07428B
:10199000B2EB074261EB17414FEA0C444FEA910763
:1019A00006FB07FC4FEA1C4C0CFB0BF7B0EBC740E7
:1019B00072EB573203FB0CF734BFA2EBC742B2EB1A
:1019C000C74261EB57310CFB0EF7B0EBC70072EB6F
:1019D00057720CFB08F734BFA2EBC702B2EBC70289
:1019E00061EB5771039F4FEA816141EA921104EB69
:1019F000CC044FEAD1374FEA826206FB07FC42EA89
:101A000090124FEA80604FEA1C4C0CFB0BF7D21B84
:101A100003FB0CF761EB07010CFB0EF7B0EB074083
:101A200072EB17420CFB08F734BFA2EB0742B2EB94
:101A3000074261EB17414FEA8C554FEA910704EBDF
:101A40009C2406FB07FC4FEA1C4C0CFB0BF7B0EB8D
:101A5000C74072EB573203FB0CF734BFA2EBC7420F
:101A6000B2EBC74261EB57310CFB0EF7B0EBC7008E
:101A700072EB57720CFB08F734BFA2EBC702B2EB54
:101A8000C70261EB577115EB4C254FEA816141EAC2
:101A900092114FEA82624FEAD13742EA901206FB76
:101AA00007FC44F100044FEA80604FEA1C4C0CFB39
:101AB0000BF7D21B03FB0CF761EB07010CFB0EF7D6
:101AC000B0EB074072EB17420CFB08F734BFA2EBF8
:101AD0000742B2EB074261EB174115EB1C154FEAC9
:101AE000813141EA92414FEA823242EA90424FEA22
:101AF00080304FEA0C7644F1000448EA03434EEA92
:101B00000B484FF0000EB2EB080C71EB030724BF3B
:101B1000624639464EEB0E0E4FF0000B0018524154
:101B200049414BEB0B0BB2EB080C71EB03077BF15C
:101B3000000B24BF624639464EEB0E0E4FF0000BF1
:101B40000018524149414BEB0B0BB2EB080C71EB07
:101B500003077BF1000B24BF624639464EEB0E0EA5
:101B600051EA020718BF46F0010616EB0E7655F152
:101B7000000254F1000103D5BDE88901BDE80088E9
:101B8000BDE88901BDE80048B619524141EB0101A9
:101B9000A3F10103704780807F7E7D7C7B7A79781A
:101BA000777676757473727171706F6E6E6D6C6C22
:101BB0006B6A6A69686867666665646463636261C4
:101BC0006160605F5F5E5E5D5D5C5C5B5B5A5A5945
:101BD00059585857575656555555545453535252B1
:101BE0005251515050504F4F4F4E4E4D4D4D4C4C09
:101BF0004C4B4B4B4A4A4A49494948484847474752
:101C0000474646464545454444444443434343428E
:101C1000424242414141002B9C4630D477002BD0B8
:101C20001CB54FEA370703B44FF010004FF0100116
:101C3000BAF1000F06D0BCF1000FDCBF40F0080085
:101C400040F008014FF000000FBCBDE810400BF160
:101C5000010BBBF1010F08BF5FEA170722BF12F1AA
:101C6000010211F101014FF0004143F1000300F0C6
:101C7000004043EA00007047F9D35708D0E746EA2E
:101C8000064613F1400F4FEA16461FDD13F1200FF1
:101C9000DFBF16430A46002120335B42BED0C3F1AA
:101CA000200746EA064602FA07F74FEA164646EAD2
:101CB0000706C3F1200722FA03F201FA07F721FA17
:101CC00003F14FF0000342EA0702A7E746EA0206E3
:101CD00046EA06464FEA164646EA0106BCBF46EA11
:101CE0000646360C4FF000034FF000024FF00001A3
:101CF00094E72DE9804C9A46934670B491E83800F9
:101D000007C831EA400C48BF34EA430C03D5FFF75B
:101D1000E6FDFFF780FFF0BCBDE8008C2DE9804CAC
:101D20009A46934670B491E8380007C810F0804F87
:101D300008BF13F0804F03D100F005F8FFF76BFFE9
:101D4000F0BCBDE8008C20F07F4780EA030023F060
:101D50007F4C07EB0C03A3F57C5300F00040A3F18C
:101D6000FE0392F0000F00F0B38095F0000F00F03A
:101D700077802DE901494FEA11404FEA144621EAE4
:101D8000004800FB06FC24EA064708FB06F607FBB2
:101D900008F800FB07F718EB06484CEB164C4FEA27
:101DA000124B18EB07484FEA15464CEB174022EA56
:101DB0000B4E0BFB06FC25EA06470EFB06F607FB5F
:101DC0000EFE0BFB07F71EEB064E4CEB164C4FF0CE
:101DD00000061EEB074E4CEB174B18EB0B0840F1BF
:101DE000000018EB0E0B58EB000840F100008F1AB2
:101DF0004FF000013CBFC943661B14BFB5EB040C98
:101E000000213CBFC943F61B4FEA17444EEA8E0E31
:101E100027EA04454FEA1C4704FB07622CEA074CFB
:101E200005FB07F70CFB05F604FB0CFC16EB07465D
:101E300042EB174216EB0C4642EB1C421BEB06062C
:101E400058EB0202414146EA9E0601D5BDE80189F0
:101E5000B619524141EB0101A3F10103BDE801892B
:101E60004FEA14454FEA114724EA054621EA074C98
:101E700005FB07F406FB07F70CFB06F105FB0CFC62
:101E800011EB074144EB17444FEA124711EB0C41A9
:101E900044EB1C4422EA074C05FB07F206FB07F75C
:101EA0000CFB06F605FB0CFC16EB074642EB174253
:101EB00016EB0C4642EB1C456A1854F1000148BF72
:101EC0007047B619524141EB0101A3F1010370477C
:101ED00095F0000F37D04FEA11424FEA144721EA3C
:101EE000024624EA074C02FB07F106FB07F70CFB4E
:101EF00006F402FB0CFC14EB074441EB17414FEADC
:101F0000154714EB0C4441EB1C4125EA074C02FB3E
:101F100007F506FB07F70CFB06F602FB0CFC16EBBD
:101F2000074645EB174516EB0C4645EB1C421219CC
:101F300051F1000148BF7047B619524141EB010110
:101F4000A3F1010370474FEA14454FEA114724EA11
:101F5000054621EA074C05FB07F106FB07F70CFBDA
:101F600006F24FF0000605FB0CFC12EB074241EBBA
:101F7000174112EB0C4251EB1C4148BF70479218BD
:101F800041EB0101A3F101037047FEE7704772B610
:101F9000FEE710B590F825100024022903D0042193
:101FA000C16301241AE001680A6822F00E020A6087
:101FB00001680A6822F001020A6090F84410036C7C
:101FC00001F01C02012101FA02F25A6080F825108A
:101FD000002180F82410816B01B18847204610BD94
:101FE00090F825007047000070B5044600F046F9EF
:101FF0000546601C02D004480078044400F03EF915
:10200000401BA042FAD370BD040000202DE9F04F20
:10201000DFF83492002309F1040A012403250AF1B0
:10202000040B87B00F270BF1040E04E104FA03F64A
:1020300032407CD0D1F804C0BCF1010F08D0BCF113
:10204000020F05D0BCF1110F02D0BCF1120F29D143
:10205000D0F808C0CDF800C04FEA430C05FA0CF8E0
:10206000CDF80CC0DDF800C02CEA080CCDF800C09B
:10207000D1F80C80DDF80CC008FA0CF8DDF800C0CF
:1020800048EA0C08C0F80880D0F8048091F804C031
:1020900028EA0608CCF3001C0CFA03FC4CEA080CF6
:1020A000C0F804C0D1F804806FEA080C5FEA8C7CA9
:1020B00009D1D0F82CC02CEA060CC8F3C0069E400B
:1020C00046EA0C06C662D0F80CC04FEA430805FA8F
:1020D00008F62CEA060CCDF8148002968E6806FAF3
:1020E00008F646EA0C06C6604E68022E01D0122E93
:1020F00015D1DE0800EB86060396366A4FEA437C6C
:102100004FEADC6807FA08FC26EA0C06D1F810C092
:102110000CFA08FC4CEA060C039EC6F820C00668C0
:10212000DDF808C026EA0C0691F804C000E081E062
:10213000DDF814800CF0030C0CFA08FC4CEA060CD9
:10214000C0F800C04E68F60074D5404ED6F860C0A6
:102150004CF0010CC6F860C0366E23F0030C06F09C
:10216000010600963A4E66440296D6F808C09E07CD
:102170004FEA167807FA08F62CEA060CB0F1904FF1
:1021800004D0344EB04203D101261BE0002619E0F2
:10219000314EB04201D1022614E0304EB04201D19E
:1021A00003260FE02E4EB04201D104260AE02D4E48
:1021B000B04201D1052605E02B4EB04201D10626E2
:1021C00000E0072606FA08F646EA0C06DDF808C025
:1021D000CCF80860D9F80060CC46D1F8048096436A
:1021E0005FEAC83800D51643CCF80060DAF8006022
:1021F000D446D1F8048096435FEA883800D5164368
:10220000CCF80060DBF80060DC46D1F8048096432F
:102210005FEAC82800D51643CCF80060DEF80060FD
:10222000F446D1F8048096435FEA882800D5164327
:10223000CCF800605B1C0A6832FA03F67FF4F6AE55
:1022400007B000F013B80000000401400010024085
:10225000000001400004004800080048000C00484D
:1022600000100048001400480018004830BCBDE8C9
:10227000C08F0AB1816170478162704701488068F0
:10228000704700000400002090F84120202A24D14B
:1022900090F84020012A20D0012280F840202422FA
:1022A00080F841200268136823F00103136002687C
:1022B000136823F480531360026813680B431360A0
:1022C00001680A6842F001020A60202180F841108A
:1022D000002180F84010084670470220704790F8AF
:1022E0004120202A22D190F84020012A1ED001222C
:1022F00080F84020242280F841200268136823F0EF
:10230000010313600268136823F4706343EA012138
:10231000116001680A6842F001020A60202180F819
:102320004110002180F84010084670470220704795
:102330007047704730B403689A691968D243D4056E
:1023400009D4CC43240606D4446C44F0010444640C
:102350004FF48074DC6153050AD4CB431B0607D4C9
:10236000436C43F00803436404684FF48063E36103
:1023700092050AD4C943090607D4416C41F0020111
:10238000416402684FF40071D161416C11F00B0F90
:1023900002D030BC01F06AB930BC70470268916964
:1023A0001268436B002B00D018477047704700003D
:1023B00070B5040004D094F84100002510B106E087
:1023C000012070BD84F84050204600F0FFF8242022
:1023D00084F841002068016821F001010160606813
:1023E000216820F0706008612068816821F4004154
:1023F0008160E0680128A06807D040F404402168AB
:102400008860E068022803D006E040F40040F6E768
:1024100021684FF40060486020684168114A114308
:1024200041602068C16821F40041C160D4E9040121
:102430000843A16940EA01202168C860D4E9070186
:102440000843216808602068016841F001010160CB
:102450006564202084F84100256384F84250002000
:1024600070BD00000080000270470000014901209B
:102470000870704700000020014901204870704733
:10248000000000202DE9F84304468846244E94F8C5
:1024900041100898202940D194F8401001293CD0DF
:1024A000012184F84010222184F84110102184F881
:1024B00042100027676462626385E06219496163C4
:1024C000618DFF2904D9FF2121854FF0807502E03D
:1024D000618D2185E56A216B122906D1AA2804D0D5
:1024E000B0F52A4F01D0002606E0204600F0ECFFB0
:1024F000608DFF2800D8E56A009694F828202B46C6
:102500004146204601F000FD84F84070022120463B
:1025100001F020F80020BDE8F8830220FBE700006E
:1025200000240080B53B00082DE9F84304468846A6
:10253000234E94F84110089820293FD194F8401078
:1025400001293BD0012184F84010212184F8411059
:10255000102184F842100027676462626385E0629C
:1025600018496163618DFF2903D9FF212185F50297
:1025700002E0618D2185E56A216B112906D1AA2827
:1025800004D0B0F52A4F01D0002606E0204600F026
:102590009BFF608DFF2800D8E56A009694F82820FC
:1025A0002B464146204601F0AFFC84F840700121E3
:1025B000204600F0CFFF0020BDE8F8830220FBE7B3
:1025C00000200080B53B00087047704710B5A8B0E8
:1025D0000446142122A8FDF7B6FF88216846FDF7BE
:1025E000B2FF20492068884239D140200090002065
:1025F0001490684600F00AF908B1FFF7C8FC1A4CBD
:10260000E06C40F00200E064E06C22A900F00200FF
:1026100027904FF4407022901220239001202490A4
:1026200003202590042026901048FFF7EFFCA06DB2
:1026300040F40010A065A06D002200F40010279067
:1026400011461F2000F074F81F2000F063F80022EC
:102650001146202000F06CF8202000F05BF828B034
:1026600010BD00000054004000100240000400486B
:102670007047704702488168027811448160704752
:102680000400002010B50024032000F071F80F2092
:1026900000F008F808B1012401E000F025F8204618
:1026A00010BD000070B50E4E05460024307898B17C
:1026B0004FF47A71B1FBF0F00A490968B1FBF0F010
:1026C00000F016FE40B9102D06D200222946501EF9
:1026D00000F02EF8756000E00124204670BD000077
:1026E0000400002010000020094808B5016E41F0E8
:1026F00001010166016E01F001010091816D41F05F
:1027000080518165806D00F08050009008BD000010
:1027100000100240002809DB00F01F020121914057
:102720004009800000F1E020C0F80011704700006F
:10273000F0B40E4B1B680C46C3F30223C3F107052C
:10274000042D00D90425191D072901D2002300E01A
:10275000DB1E012606FA05F1491E214099409E40E4
:10276000761E16403143F0BC02F049B80CED00E093
:10277000064900F0070208684FF6FF03184040EAD8
:102780000220034A10430860704700000CED00E08F
:102790000000FA051649B0F5007F0868C0F3412033
:1027A00009D0022805D0086820F4C06040F4806099
:1027B0000860002070470128FBD0086820F4C06042
:1027C00040F4007008600B483222006850430A4A07
:1027D000B0FBF2F0401C00E0401E4A69520501D5F2
:1027E0000028F9D148694005E3D50320704700006F
:1027F000007000401000002040420F0002480068B6
:1028000000F4C06070470000007000402DE9F84FF0
:10281000044600270088E54D3E46010504F1200BE3
:102820001DD5606E78B1B0F5800F11D0B0F5000FF6
:1028300004D0B0F5400F22D001270FE0E86840F443
:102840008030E8601BE00021201D01F005FC03E062
:102850000021584601F096FC070010D03E46208823
:10286000C00426D5A06EC0B1B0F1807F1AD0B0F1FF
:10287000007F0DD0B0F1407F19D0012718E0D5F8C6
:102880008800616E20F440000843C5F88800E6E740
:10289000E86840F48030E86009E00021201D01F084
:1028A000DBFB03E00021584601F06CFC0746F7B162
:1028B0003E46206880033AD5A86D4FF00008C0005E
:1028C00009D4A86D40F08050A865A86D4FF00108AC
:1028D00000F080500090DFF8D8A2DAF8001041F440
:1028E0008071CAF80010FFF7C9FC814610E0D5F8E6
:1028F0008800A16E20F040700843C5F88800D8E732
:10290000FFF7BCFCA0EB0900022801D9032705E072
:10291000DAF80000C005F3D5002F7CD04FEA070697
:10292000B8F1000F03D0A86D20F08050A865207882
:10293000C00707D0D5F88800A16B20F0030008433A
:10294000C5F888002078800707D5D5F88800E16BA6
:1029500020F00C000843C5F888002078400707D510
:10296000D5F88800216C20F030000843C5F88800B5
:102970002078000707D5D5F88800616C20F0C000EA
:102980000843C5F888002078C00607D5D5F8880028
:10299000A16C20F440700843C5F8880020788006B8
:1029A00007D5D5F88800E16C20F440600843C5F8ED
:1029B00088002088800507D5D5F88800E16D20F4CF
:1029C00040200843C5F888002088400507D5D5F881
:1029D0008800216E20F440100843C5F88800207854
:1029E000400607D5D5F88800216D20F440500843F3
:1029F000C5F888002078000607D5D5F88800616DF5
:102A000020F440400843C5F888002088C00509D557
:102A1000D5F8880000E01CE0A16D20F440300843A8
:102A2000C5F8880020884FF0006780044FF0806868
:102A30004FD5D5F88800E16E20F040600843C5F816
:102A40008800E06EB8423CD1E86840F48010E8604D
:102A50003FE0D5F8900010F4407015D0D4F8841001
:102A6000814211D0D5F89000D5F8901020F4407034
:102A700041F48031C5F89010D5F8901021F48031E0
:102A8000C5F89010C5F89000C00710D0FFF7F6FB0E
:102A9000074641F2883906E0FFF7F0FBC11B4945C4
:102AA00001D903263CE7D5F890008007F4D5D5F886
:102AB0009000D4F8841020F440700843C5F89000CA
:102AC0002EE7404505D10121201D01F0C5FA00B1D6
:102AD00006462068000317D5D5F88800216F20F03E
:102AE00040600843C5F88800206FB84204D1E86808
:102AF00040F48010E86007E0404505D10121201D29
:102B000001F0AAFA00B106462068400317D5D5F8AF
:102B10008800616F20F040600843C5F88800606F4E
:102B2000B84204D1E86840F48010E86007E040450E
:102B300005D10121201D01F08FFA00B10646208841
:102B400040041AD5D5F88800A16F20F04050084302
:102B5000C5F88800A06FB0F1805F03D0B0F1005FCE
:102B600005D00AE00221201D01F076FA03E00221DF
:102B7000584601F007FB00B106462088000407D53F
:102B8000D5F88800E16F20F080400843C5F8880040
:102B90002068C00307D555F8880FD4F8801020F0BE
:102BA000004008432860304600F004B8001002409E
:102BB0000070004018BCBDE8E08F00002DE9F04730
:102BC0000F46050058D0404E306800F00700B8426C
:102BD00009D2306820F0070038433060306800F0D8
:102BE0000700B84248D12878384CC0072CD0686814
:102BF000032811D0022812D0216898B14905002974
:102C00003ADAA16821F003010143A160FFF736FB26
:102C1000804641F2883910E021688901EFE7216898
:102C20008903ECE78907EAE7FFF728FBA0EB080137
:102C3000494502D90320BDE8F087A068696800F023
:102C40000C00B0EB810FEFD12878800705D5A06884
:102C5000A96820F0F0000843A060306800F0070089
:102C6000B8420BD9306820F0070038433060306834
:102C700000F00700B84201D00120DCE728784007C7
:102C800005D5A068E96820F4E0600843A0602878D2
:102C9000000706D5A068296920F4605040EAC10009
:102CA000A06000F03FF8A168094AC1F30311515C2C
:102CB00001F01F01C8400749086007480068BDE8E7
:102CC000F047FFF7EFBC0000002002400010024078
:102CD0007471000810000020080000200548064913
:102CE00000688968054AC1F30221515C01F01F01A7
:102CF000C84070471000002000100240B471000866
:102D00000548064900688968054AC1F3C221515C3B
:102D100001F01F01C8407047100000200010024061
:102D2000B471000870B52549002318468A68CC683C
:102D300012F00C0204F00306214C4FEA640509D09E
:102D40000C2A05D0042A32D0082A00D1284670BDAA
:102D5000012E10D10B681B0704D4D1F89430C3F3B3
:102D6000032302E00B68C3F30313164E56F8233017
:102D7000DAB10C2AEBD1C86800F00300022818D0A1
:102D8000032818D01846CA68CB68C2F30212C3F3EE
:102D900006234343521CB3FBF2F2C868C0F3416000
:102DA000401C4000B2FBF0F070BD184670BD2046DC
:102DB00070BD2046E7E72846E5E700000010024026
:102DC0000024F400847100082DE9F84304006FD05A
:102DD000FE4DA86800F00C06E86800F003072078B4
:102DE000C00664D576B10C2E01D1012F0AD0A0699E
:102DF000002828687AD040F001002860FFF73EFAEA
:102E000080465DE02868800702D5A0690028DED0F2
:102E1000216A2868000703D5286800F0F00004E064
:102E2000D5F89400F02202EA1010814216D9084623
:102E300001F02CFA00283BD1286840F008002860F7
:102E40002868216A20F0F000084328606868E1697A
:102E500020F47F4040EA0120686016E0286840F0D6
:102E6000080028602868216A20F0F00008432860E4
:102E70006868E16920F47F4040EA0120686026B973
:102E8000206A01F003FA0028D5D1FFF74BFFA968AB
:102E9000CF4AC1F30311515C01F01F01C840CD4975
:102EA0000860CD480068FFF7FDFB00287ED12EE0CA
:102EB000CAE000BFFFF7E2F9A0EB0800022876D8CD
:102EC00028688007F6D5286840F008002860286840
:102ED000216A20F0F000084328606868E16920F466
:102EE0007F4040EA0120686011E0FFE720F0010028
:102EF0002860FFF7C3F9804606E000BFFFF7BEF980
:102F0000A0EB08000228DAD828688007F6D42078D9
:102F1000C00740D0082E18D00C2E01D1032F14D09A
:102F20006068B0F5803F17D0B0F5A02F286817D0A3
:102F300020F480302860286820F4802028606068B1
:102F4000E0B1FFF79BF9804614E02868800322D5A2
:102F50006068002878D01EE0286840F48030EDE7F3
:102F600040F480202860F7E7FFF788F9A0EB08001D
:102F70006428A4D828688003F6D50CE0FFF77EF912
:102F8000804605E0FFF77AF9A0EB0800642896D8A0
:102F900028688003F6D4207880073BD5042E11D012
:102FA0000C2E01D1022F0DD0E06801E092E1F1E09A
:102FB000002828681ED040F480702860FFF75EF972
:102FC00007460CE0286840050CD5E0680028C1D011
:102FD00008E000BFFFF752F9C01B022893D8286809
:102FE0004005F7D56868217C20F0F85040EA016080
:102FF00068600FE020F480702860FFF73FF9074613
:1030000005E000BFFFF73AF9C01B0228B1D82868D5
:103010004005F7D42078000729D560690028D5F845
:10302000940012D040F00100C5F89400FFF726F993
:10303000074604E0FFF722F9C01B022899D8D5F80B
:1030400094008007F6D512E000E120F00100C5F8F9
:103050009400FFF713F9074605E000BFFFF70EF9EC
:10306000C01B022885D8D5F894008007F6D42078B4
:10307000400766D5A86D0027C00008D4A86D40F0B1
:103080008050A865A86D012700F08050009053483B
:103090000168C90512D40168814641F4807101605C
:1030A000FFF7ECF8804605E0FFF7E8F8A0EB080032
:1030B00002286FD8D9F80000C005F5D5A06801280E
:1030C00016D00528D5F8900017D020F00100C5F8DB
:1030D0009000D5F8900020F0040000BFC5F89000E3
:1030E000A06841F28839C0B1FFF7C8F880460FE008
:1030F000D5F8900040F00100F0E740F00400C5F87A
:103100009000F5E7FFF7BAF8A0EB0801494541D870
:10311000D5F890008007F5D50EE0FFF7AFF88046B0
:1031200006E000BFFFF7AAF8A0EB0801494531D837
:10313000D5F890008007F5D41FB1A86D20F080501D
:10314000A865A06A38B302280AD00C2E7ED0286861
:1031500020F080702860286810F0205F77D0AAE007
:10316000E868E26A00F0030191422BD1216B00F084
:10317000700209011039914224D1626B00F4FE41C2
:10318000B1EB022F1ED1A26B00F40031072A03D04D
:10319000012202E09DE089E00022914212D1A18F3C
:1031A00000F4C00249084905A1F50011914209D176
:1031B00094F8401000F0C06049084906A1F1007180
:1031C00081425CD00C2E41D0286809E000100240FA
:1031D00074710008100000200800002000700040FA
:1031E00040017ED42868C0007BD4286820F080701D
:1031F0002860FFF743F8064605E000BFFFF73EF8FA
:10320000801B022865D828688001F7D4D4E90B0117
:103210006FF00F0202EB01110843A18F520449081D
:1032200002EB4151626B41EA0221084394F84010DD
:103230004FF07E42490802EB41610843A16B090946
:1032400040EA4140E968284A114001E049E02EE0A7
:103250000843E860286840F080702860E86840F023
:103260008070E860FFF70AF8044604E0FFF706F80C
:10327000001B02282DD828688001F7D52FE0286888
:1032800080012CD4286840F080702860E86840F005
:103290008070E860FEF7F2FF044604E0FEF7EEFF00
:1032A000001B022815D828688001F7D517E0E868C8
:1032B00020F00300E860E8680C490840E860FEF789
:1032C000DDFF044608E000BFFEF7D8FF001B022820
:1032D00002D90320BDE8F88328688001F4D40020D7
:1032E000F8E70120F6E700008C809DF9FFFFEEFE75
:1032F00010B5401EB0F1807F01D3012010BD4FF00A
:10330000E02460610F21601701F079FA0020A061CC
:1033100007202061002010BD10B5040002D0A06F6E
:1033200010B107E0012010BD002084F87400204691
:1033300000F026F82420A0672068016821F0010130
:103340000160204601F0CCF80128ECD0606A10B191
:10335000204601F033F82068416821F49041416033
:103360002068816821F02A0181602068016841F0AD
:10337000010101602046BDE8104001F083B8000063
:1033800030B5A9B00446142122A8FDF7DCF8882145
:103390006846FDF7D8F816492068884226D10025EE
:1033A00002240F9568460094FFF730FA08B1FEF743
:1033B000EEFD1048816D41F400318165816D01F4AD
:1033C00000312791C16C41F00101C164C06C22A998
:1033D00000F0010027900C2081E8310003202590A7
:1033E000072026904FF09040FEF710FE29B030BD28
:1033F00000440040001002402DE9F8430446806F6D
:103400001F4616460D4620284FD1CDB1C6B194F8BF
:103410007400012849D0012084F874004FF000089E
:10342000C4F880802120A067FEF728FFA4F8506030
:103430008146A4F85260A068B0F5805F03D004E034
:103440000120BDE8F883206928B12E465FF0000511
:1034500084F8748010E00026FAE78021204601F00D
:1034600063F9B8B9C6B116F8010B21680885B4F83C
:103470005200401EA4F85200B4F852004B464FF0E0
:10348000000200970028E8D14FF04001204601F0EB
:103490004BF930B10320D4E735F8020BC0F3080034
:1034A000E3E72020A0670020CBE70220C9E7FEE782
:1034B0000148FEF73FBF0000140000200148FEF75E
:1034C0006DBF000014000020C16AAA2907D0C16A9C
:1034D000B1F52A4F02D14FF00071C162704700214F
:1034E000FBE7806A0021826B02B19163C26B02B17B
:1034F000916300F01FBD10B50022CC074FF02803E8
:1035000006D090F84140422233EA040400D0F2226F
:103510008C0707D590F8414042F04402A34301D004
:1035200042F0B0020B0401D542F0B802102904D0D9
:10353000202905D0402906D007E042F0900204E09F
:1035400042F0200201E042F040020068016891432D
:10355000016010BD10B5174C436B0022A34202D08E
:10356000154CA34212D10B0400D5B822102904D067
:10357000202905D0402906D017E042F0900214E03F
:1035800042F0600211E042F040020EE00B0400D570
:10359000B822CB0701D042F0F2028B0701D542F0EE
:1035A000F402202901D142F0200200680168114391
:1035B000016010BDA53A0008DD3C000801688A6979
:1035C000D243920701D400228A6200688169C9430C
:1035D000C90703D0816941F00101816170472DE97C
:1035E000F041044690F841002821814320684FF0C3
:1035F00000054FF0080304D0C36184F84050BDE8D3
:10360000F0818169C1F300478169FE2202EA114617
:103610008168C1F30902C168D4F80CE001F0FE0131
:103620004FF4004CBEF1020F17D14FF0060E06F01A
:1036300006060EEAD21E76450ED1A16C491CA16485
:10364000A16C0229DBD1A564C36184F840503946DE
:103650002046FEF76EFED2E70E4661462046FFF793
:103660004AFF84F840503246F1E7000070B5044646
:1036700090F84100002584F84250364AE2626585A0
:10368000626C0A43626428281FD029281DD02A288A
:103690001BD048F203012046FFF72DFF94F84100AC
:1036A000602802D0202084F841006563206B2A4EF8
:1036B000A16B19B1112812D0212810D0E16BE9B308
:1036C000122824D0222822D03EE003212046FFF7F2
:1036D00012FF282084F8410020486063E6E7206854
:1036E0000168490403D5016821F480410160A06BA1
:1036F000FEF776FC012827D0A06B866384F8405043
:10370000A06BFEF746FC002823D0A06B18E02068D1
:103710000168090403D5016821F400410160E06BF0
:10372000FEF75EFC01280FD0E06B866384F8405002
:10373000E06BFEF72EFC00280BD000E004E0E06B0D
:10374000816BBDE8704008472046BDE8704000F03E
:10375000F1BB70BD0000FFFFE3340008E93D000845
:1037600070B504461648E06200252563202084F8E1
:10377000410084F84250C8436563400711D4206873
:10378000406A616A0870606A401C6062208D40B1C6
:10379000401E2085608D401E6085606C40F00400F6
:1037A000606448F203012046FFF7A5FE216810205F
:1037B000C86184F840502046FEF756FE70BD0000F8
:1037C0000000FFFFF8B50446006820260F46C661DA
:1037D00094F84100212804D094F84100222806D012
:1037E0000BE001212046FFF786FE112004E00221B4
:1037F0002046FFF780FE12202063206841682B4A94
:103800001140416000252A486563E062F843C10623
:1038100006D422681021D161616C41F00401616419
:1038200094F84110602905D1400703D42068406A0C
:10383000C0B200902046FFF7C1FE606C94F84110C2
:10384000602900D028B1616C2046BDE8F840FFF740
:103850000DBF94F84100212812D094F8410022288D
:103860000DD184F84160256394F8420084F84250F9
:10387000402884F84050204614D0FEF7F7FDF8BDEC
:1038800084F84160256394F8420084F8425040284F
:1038900084F84050204602D0FEF7EEFDF8BDFEF75A
:1038A00094FEF8BDFEF790FEF8BD000000E800FEB3
:1038B0000000FFFF70B50025044680F8425090F8E4
:1038C00041102020212984F841000CD012202063CF
:1038D000022120466563FFF70EFE84F84050204623
:1038E000FEF7C4FD70BD11202063012120466563F1
:1038F000FFF701FE84F840502046FEF7BDFD70BD85
:103900002DE9F04102680446156890F841000E4622
:103910002027D761212806D0292804D0222809D0C1
:103920002A2807D00DE048F201012046FFF7E3FD09
:10393000212005E048F202012046FFF7DCFD2220AD
:1039400020632068416841F400414160206841687B
:10395000354A114041602046FFF730FEE8434104FC
:1039600006D42068016821F480410160A06B07E063
:10397000000409D42068016821F400410160E06B73
:1039800010B1006840686085F04340070FD420689C
:1039900026F00406406A616A0870606A401C606232
:1039A000208D20B1401E2085608D401E6085608D79
:1039B00018B1606C40F004006064002584F8425047
:1039C0006563606C68B1616C2046FFF74FFE94F848
:1039D0004100282815D131462046BDE8F041FFF7C7
:1039E000BFBEE06A114EB0420DD0204600F020F874
:1039F000E66284F84170256384F840502046FEF763
:103A000033FDBDE8F08194F8410084F8417022282C
:103A1000256384F84050204602D0FEF72AFEF0E7E6
:103A2000FEF726FEEDE7000000E800FE0000FFFFC5
:103A300070B5044600680168002584F84250C94307
:103A40004A0403D4016821F4804104E0090403D44A
:103A5000016821F40041016094F8411028202929CF
:103A600011D094F841102A290CD184F84100222069
:103A7000206302212046FFF73EFD84F84050204697
:103A8000FEF7F6FD70BD84F841002120206301217E
:103A90002046FFF730FD84F840502046FEF7E9FD50
:103AA00070BD0000F8B5044690F8400001281AD017
:103AB000012084F84000CB43DE064FF000056FEA9A
:103AC000020012D4C20610D421681020C861606CB4
:103AD00040F00400606420212046FFF73BFD2046B3
:103AE000FFF76CFD5FE00220F8BD314A1E0638D4B6
:103AF000460636D42068016821F040010160608DDF
:103B000000282068406829D0C0F30901608DFF2893
:103B100004D9FF2020854FF0807308E0608D208558
:103B2000E06A904201D0E36A01E04FF00073009533
:103B300094F82820204600F0E7F9608D218D401A86
:103B4000608594F8410022282068016803D041F480
:103B50008041016027E041F40041FAE7800117D578
:103B600005E05E0618D4460616D4608D20B14021CB
:103B70002046FFF77BFD16E020684168890112D4DA
:103B8000E16A914204D1416841F4804141600AE018
:103B90002046FFF78FFE06E09A0604D4800602D482
:103BA0002046FFF70FFE84F840500020F8BD0000CB
:103BB0000000FFFFF8B5044690F840000E460128CB
:103BC00016D0012084F84000F043C1064FF00007F2
:103BD0006FEA02050ED4E9060CD421681020C861F2
:103BE000606C40F0040060642046FFF7E7FC55E09D
:103BF0000220F8BD410708D4690706D4206826F0E2
:103C00000406406A616A087007E081070FD4A907BB
:103C10000DD4606A216800788862606A401C606226
:103C2000208D401E2085608D401E608536E02A4A2A
:103C3000010629D4690627D4608D08B1208D20B1F2
:103C400020684068800142D524E020684068C0F3C5
:103C50000901608DFF2805D9FF2222854FF080736E
:103C600000970DE0608D2085E06A0097904203D0B8
:103C7000E36A94F8282003E094F828204FF00073BA
:103C8000204600F041F909E0400607D4680605D453
:103C9000608D80B140212046FFF7E8FCF0438006AC
:103CA00005D4A80603D431462046FFF78BFD84F8DF
:103CB00040700020F8BD206841688901EED4E16AB7
:103CC000914204D1416841F480414160E6E72046D9
:103CD000FFF7F0FDE2E700000000FFFF2DE9F047ED
:103CE000C66A8946044690F840004FF00008012853
:103CF00020D0012084F840006FEA0907B8066FEA77
:103D0000020505D4A80603D449462046FFF7F8FD6E
:103D1000F8065CD4E8065AD469044FF0100001D5C7
:103D2000290451D4E16B51B12A0408D409684968C7
:103D300019B104E00220BDE8F0874FF00108A16B43
:103D400021B16A0402D40968496811B1B8F1000FC1
:103D50001CD094F84110282902D1B6F1007F04D07C
:103D600094F84110292905D02EE049462046FFF756
:103D7000F7FC34E016F5803F26D02168C861204664
:103D8000FFF71CFC2046FFF753FE28E02168C861BE
:103D9000606C40F00400606494F8410016B1B6F124
:103DA000807F1CD1212806D0292804D0222804D0C5
:103DB0002A2802D003E0212000E022202063616C49
:103DC0002046FFF753FC0AE02168C86107E0380786
:103DD00005D4280703D449462046FFF700FC0020FD
:103DE00084F84000A7E700002DE9F041C56A0446C9
:103DF00090F840008846012826D0012084F8400031
:103E00006FEA0807B8066FEA020605D4B00603D4C5
:103E100041462046FFF774FD3A49F8064FF080729C
:103E200031D4F0062FD4638D102083B12168C8618E
:103E3000606C40F0040060640DB195425ED1616C2D
:103E40002046FFF713FC59E00220BDE8F08194F80A
:103E50004120282A02D1B5F1007F04D094F84120F6
:103E6000292A05D00CE041462046FFF779FC45E0C1
:103E70008D4205D02168C8612046FFF79FFB3AE0DC
:103E80002168C8613AE0780715D4700713D4608DB3
:103E900060B12068406A626A1070606A401C6062AB
:103EA000208D401E2085608D401E6085608D28BB62
:103EB0008D4220D122E0380706D4300704D4414691
:103EC0002046FFF78CFB19E0B80717D4B00715D4CC
:103ED000608D68B1606A216800788862606A401C01
:103EE0006062608D401E6085208D401E208505E04B
:103EF000954200D015B92046FFF79AFD002084F8BE
:103F00004000A2E70000FFFFF0B50568059C686867
:103F10004FF48066064FC1F3090106EA545641EAA0
:103F200002413E431943B043214308436860F0BD5A
:103F3000FF63FF0310B590F841200021602A05D0EF
:103F4000016380F84010FEF731FA10BD202280F89E
:103F50004120016380F84010FEF7EAF910BD00002F
:103F600010B586B014216846FCF7EDFA1248C16C12
:103F700041F00101C164C16C01F001010591C16C06
:103F800041F00201C164C06C4FF0904400F00200A7
:103F90000590002220212046FEF76BF9202000909A
:103FA00001200021CDE90101039169462046FEF779
:103FB0002DF806B010BD000000100240134810B5E7
:103FC000114901601249416000210122C0E9021239
:103FD000016141618161C1610162FEF7E9F908B1E6
:103FE000FDF7D5FF00210948FEF74EF908B1FDF7AE
:103FF000CEFF00210548FEF772F9002803D0BDE886
:104000001040FDF7C4BF10BD005400401400002054
:10401000BC7D70100D4810B50B4901604FF4E131C3
:104020004160002181600C22C160C0E904128161FD
:10403000C16101624162FFF76FF9002803D0BDE85A
:104040001040FDF7A4BF10BD0044004060000020F8
:10405000FEE7FEE7704700002DE9F041444C0546BD
:104060008846E0680026810728680DD0E16801F0E5
:104070000301814216D1A8B1E0686968C0F302105B
:10408000401C88420ED120E0012804D0022805D02F
:10409000032807D108E02168890701E02168490564
:1040A000002907DB01265FE02168890302D421682B
:1040B0004903F5E7E1686A686FF00F0321F07301C7
:1040C00003EB021211430143E160206820F080609D
:1040D0002060FEF7D3F8074605E000BFFEF7CEF8F4
:1040E000C01B022837D820680001F7D4B8F1000FB0
:1040F00018D0B8F1010F1ED0287D4FF07E41400846
:1041000001EB4060A96840EA01202169194A114089
:1041100008432061206840F080602060FEF7AEF820
:1041200007461AE0A868E9680002090940EA414028
:104130002169114AEBE7288A1049400801EB4050F9
:10414000A96840EA012021690D4AE0E7FEF796F8E8
:10415000C01B022801D9032606E020680001F5D51E
:104160002069A969084320613046BDE8F08100005C
:1041700000100240FF80FFF9FF80FDFF0000E0FF1C
:10418000FF809FFF2DE9F0413D4C06468846E068E0
:104190000025810730680DD0E16801F003018142FC
:1041A00016D1A8B1E0687168C0F30210401C8842C3
:1041B0000ED120E0012804D0022805D0032807D121
:1041C00008E02168890701E021684905002907DB2B
:1041D000012551E02168890302D421684903F5E7EC
:1041E000E16872686FF00F0321F0730103EB0212B4
:1041F00011430143E160206820F080502060FEF709
:104200003DF8074605E000BFFEF738F8C01B02285E
:1042100029D820688000F7D4B8F1000F15D0307C81
:104220004FF07E41400801EB4060B16840EA012058
:104230006169144A114008436061206840F0805071
:104240002060FEF71BF807460FE0B068F168000237
:10425000090940EA414061690B4AEBE7FEF70EF8B5
:10426000C01B022801D9032506E020688000F5D58F
:1042700060697169084360612846BDE8F08100000B
:1042800000100240FF80FFF9FF80FDFFF8B51C4DD4
:1042900006460024A86DC00002D5FEF7AFFA0DE077
:1042A000A86D40F08050A865A86D00F08050009087
:1042B000FEF7A4FAA96D21F08051A965B0F5007F41
:1042C00004D0802E07D94FF003040AE0802E08D9CD
:1042D000A02E01D804E001D1022402E0702E00D10A
:1042E00001240848016821F00701214301600068AA
:1042F00000F00700A04201D00120F8BD0020F8BD69
:1043000000100240002002407047FEF7B3B900B52C
:1043100097B044216846FCF716F9142111A8FCF760
:1043200012F94FF40070FEF735FA08B172B6FEE7E5
:104330000220C10103911021009004910A900121F3
:10434000CDE90B0108210D910721CDE90E10109048
:104350006846FEF739FD08B172B6FEE70F201190EE
:10436000032012900020139014901590032111A89F
:10437000FEF724FC002801D072B6FEE717B000BD9E
:104380000B48016841F4700101600A48016841F07E
:1043900001010160002181600268074B1A40026040
:1043A0008214C260026822F4802202608161704738
:1043B00088ED00E000100240FFFFF6EA90F82410BC
:1043C000C90706D001684A68836A22F400321A439A
:1043D0004A6090F82410890706D501684A68C36AC4
:1043E00022F480321A434A6090F82410490706D517
:1043F00001684A68036B22F480221A434A6090F8ED
:104400002410090706D501684A68436B22F400426C
:104410001A434A6090F82410C90606D501688A68D4
:10442000836B22F480521A438A6090F82410890624
:1044300006D501688A68C36B22F400521A438A6069
:1044400090F82410490611D501684A68036C22F4DB
:1044500080121A434A60016CB1F5801F06D10168D1
:104460004A68436C22F4C0021A434A6090F8241050
:10447000090606D501684A68806C22F400220243CE
:104480004A607047F8B500260446C0F88060FDF722
:10449000F5FE0546206800686FF07E47000708D5E6
:1044A0002B4600224FF400112046009700F03CF903
:1044B00060B92068006840070AD52B4600224FF4F7
:1044C00080012046009700F02FF908B10320F8BDC5
:1044D0002020A067E067266684F874600020F8BD9D
:1044E0002DE9F0410446016880682269E3691043C0
:1044F000626900251A431043814F0A68814B1A40B4
:1045000002430A6020684168E26821F44051114387
:1045100041602168A069B94201D0226A10438A68CB
:1045200022F4306202438A607749226877488A42DF
:104530000DD1D0F8880010F0030006D0012866D015
:10454000022854D0032851D163E001204FE0704984
:104550008A420BD1D0F8880010F00C0047D0042814
:1045600045D0082851D00C2840D152E069498A42F0
:104570000BD1D0F8880010F0300038D0102846D089
:10458000202842D0302831D143E063498A420BD100
:10459000D0F8880010F0C00029D0402837D08028FB
:1045A00033D0C02822D134E05C498A420ED1D0F801
:1045B000880010F440701AD0B0F5807F27D0B0F595
:1045C000007F22D0B0F5407F10D122E0BA420DD159
:1045D000D0F8880010F4406009D0B0F5806F16D094
:1045E000B0F5006F11D0B0F5406F12D010204C49DB
:1045F00000264FF40043BA422CD160B102280DD0FE
:1046000004280DD008286FD10EE00220EFE7042027
:10461000EDE70820EBE7FEF761FB03E00B4603E064
:10462000FEF780FB030066D0626802EB420098420E
:104630005AD8B3EB023F57D8190E1B02500818186E
:1046400071410023FBF7C0FE364AA0F5407191424C
:104650004FD949E0E2694FF6EF779A4228D109280D
:1046600042D2DFE800F005080D41224141410E0031
:10467000FEF734FB01E0FEF743FB030001D13AE013
:104680000B466068590001EB5001B1FBF0F080B2BD
:10469000A0F11001B94227D84FF6F0710140C0F3E4
:1046A000420001432068C16025E0FEF73BFBE4E7E0
:1046B000092819D2DFE800F005080D181A18181893
:1046C0000E00FEF70BFB01E0FEF71AFB030001D121
:1046D00011E00B46606803EB5001B1FBF0F080B2D3
:1046E000A0F11001B94204D9012504E0FEF71AFB3C
:1046F000ECE72168C86066662846A666BDE8F081DA
:1047000000800040F369FFEF0038014000100240D4
:104710000044004000480040004C00400050004071
:104720000024F400FFFC0F002DE9F0479A461746DD
:104730000E4604464FF000094FF02008089D39E06E
:10474000681C37D0FDF79AFDA0EB0A00A84222D8DA
:104750000DB32068016849072CD5C069C043000526
:1047600028D421684FF4006008622068016821F4B1
:10477000D07101602068816821F001018160C4F876
:104780007880C4F87C80C4F8808000BF84F874907E
:104790000320BDE8F0872068016821F4D071016032
:1047A0002068816821F001018160C4F87880C4F834
:1047B0007C80EBE72068C06936EA000004D0002066
:1047C000B842BDD00020E4E70120F9E7FEE703B4DA
:1047D00001984100009850EAC12018BF04204A0DFA
:1047E00018BF40F0010040F2FF72B2EB515F08BF0A
:1047F00040F00200012808BF052002B070470907F9
:10480000090E002804DB00F1E02080F80014704756
:1048100000F00F0000F1E02080F8141D70473038E0
:104820000A2801D20120704700207047FDF72AFFB7
:10483000FFF76DFDFFF794FBFFF7ECFBFFF7BEFB07
:1048400000F068FAFEE7FBF769BDFDF7CDBBFBF7AB
:1048500094BD11469AB240684FF47A73FEF7CCBD0E
:104860002DE9F8431F4E002517468846044675700B
:10487000FDF704FD81464FF000700090BBB2424648
:10488000C2212068FDF750FE002804D14FF47A774A
:10489000707810B10020BDE8F883FDF7EFFCA0EBC5
:1048A0000900B842F4D9206890F84010012916D0C8
:1048B000012180F84010216820200968C861216822
:1048C00009684A68084B1A404A60216881F841002B
:1048D000206880F84250206880F84050DAE70220D3
:1048E000D9E700000000002000E800FE2DE9F84FA5
:1048F0001D4C0027DDF828A067709B46904689462E
:1049000005462770FDF7BAFC064600971FFA88F3A4
:104910004A46C2212868FDF707FE00281CD14FF443
:104920007A77607860B14FF0007000901FFA8AF3D8
:104930005A46C2212868FDF7A5FD00280CD10DE0DC
:10494000FDF79CFC801BB842EBD904E0FDF796FC18
:10495000801BB84202D9032000F008B82078002854
:10496000F4D00020F8E700000000002018BCBDE8EB
:10497000E08F00002DE9F74F88B00F46144600265F
:10498000142103A8FBF7DFFD03A9089800F0FEF946
:1049900000280CD1BDF80C30562B0BD05621CDE998
:1049A00000105DA20021089800F080FA69480BB061
:1049B00000F0ACB941F2422841F20D25012F15D08B
:1049C000022F24D0CDF80080BDF8123062A2012160
:1049D000089800F06BFA0095BDF814306AA2012126
:1049E000089800F063FA002C20D029E0CDF8008070
:1049F000BDF8123058A20121089800F057FA002C97
:104A00001ED1BDF8121041451AD16AA27EE0009570
:104A1000BDF814305CA20121089800F047FA7CB977
:104A2000BDF81400A8420BD170A26FE0BDF81210BF
:104A3000414505D1BDF81400A84201D1794A65E08D
:104A4000DFF8E4B100224FF4807ACDF800B0CDE970
:104A500001A241F6E4030BF580723946089800F094
:104A60009FFA040046D103A9089800F08FF90400CA
:104A700040D1DFF8E09009F101090FB1012F12D107
:104A80004446CDF80080BDF8123033A201210898C9
:104A900000F00CFABDF81200A04203D04C464B4681
:104AA00062A211E00FB1022F2FD10095BDF8143092
:104AB00035A20121089800F0F9F9BDF81400A842C8
:104AC00023D04C464B4668A20021089800F0EEF92E
:104AD000731C74A20121089800F0E8F90122CDF8B6
:104AE00000B0CDE901A241F6E403754A39460898C1
:104AF00000F056FA234673A20021089800F0D6F978
:104B0000089800F057FD204651E778A20121089847
:104B100000F0CCF900204AE7696E76616C69642088
:104B2000636869705F69642E2072756E6E696E6766
:104B30007C6865616465723A205B25647C25645DF0
:104B40002E204552524F523A203078253038580D99
:104B50000A0000000600008070617463685F696489
:104B6000202D2072756E6E696E677C686561646564
:104B7000723A205B3078253034587C3078253034D8
:104B8000585D0D0A000000006366675F6964202DB0
:104B90002072756E6E696E677C6865616465723AD5
:104BA000205B3078253034587C3078253034585D9F
:104BB0000D0A00004E564D2070726F6772616D6D68
:104BC000696E67206973206E6F74207265717569F4
:104BD0007265642C2070617463682069732075703D
:104BE00020746F20646174650D0A00004E564D20DC
:104BF00070726F6772616D6D696E67206973206E88
:104C00006F742072657175697265642C20636667C4
:104C100020697320757020746F20646174650D0ABB
:104C2000000000004C7300088E5700087061746328
:104C3000685F6964206973206D69736D617463686E
:104C4000206166746572204E564D2070726F6772D7
:104C5000616D6D696E672E204552524F523A203079
:104C600078253038580D0A006366675F69642069EB
:104C700073206D69736D6174636820616674657219
:104C8000204E564D2070726F6772616D6D696E6750
:104C90002E204552524F523A203078253038580D48
:104CA0000A0000004E564D2070726F6772616D6D84
:104CB000696E672072657472793A2025640D0A0066
:104CC0008E5800084E564D2070726F6772616D6D80
:104CD000696E67206661696C65642E204552524F8B
:104CE000523A203078253038580D0A004E564D2063
:104CF00070726F6772616D6D696E67207375636343
:104D000065737366756C6C790D0A000030BCBDE884
:104D1000C08F000000B58FB020216846FBF713FC60
:104D2000142108A8FBF70FFC10480D9010480E90B6
:104D300010480090104801901048029010480390CD
:104D4000104804900DA806900F4805900120079088
:104D500008A9684600F01AF8002804D1002211467C
:104D60006846FFF707FE0FB000BD000014000020EA
:104D70006000002061480008ED4800084B4800082A
:104D8000474800084F480008534800082DE9F047FD
:104D9000824690B000200C4609900A900B900C902F
:104DA0000D908DF8380001460E2309AA504600F0F8
:104DB000FBFB054604230DAA2C21504600F0F4FB12
:104DC000054350462A490EAA012300F09DFB2843C3
:104DD000050009D0034627A20021504600F066F8DE
:104DE000284610B0BDE8F0879DF824009DF82510F6
:104DF00000EB012080B220809DF82650A5709DF820
:104E00002760E67081469DF828009DF8291000EB88
:104E1000012087B2A7809DF82A009DF82B1000EB97
:104E200001201FFA80F8A4F806809DF82E009DF856
:104E30002F1000EB01201FFA80FCA4F808C09DF899
:104E40003030A3729DF83120E2720D99E1609DF837
:104E500038002074CDE90532CDE907108DE8E01166
:104E60004B46114A0121504600F020F80020B8E7D7
:104E700002C001206661696C656420746F207265F0
:104E80006164206368697020696E666F726D617419
:104E9000696F6E2E204552524F523A20307825309D
:104EA00038580D0A00000000B87200080FB470B541
:104EB000044640690D4600281AD0E069A84217DB75
:104EC00007AE012D01D00CA100E00EA11048FBF7A8
:104ED00005FB0F4832460A300699FBF7EDFA0C48FD
:104EE000FBF712FB0346A0696469094A2946A047FB
:104EF00070BC5DF814FB00005B53542D4552525DAD
:104F00003A2000005B53542D494E465D3A20000084
:104F1000E400002070B505461446561806E0E1B2DC
:104F2000284600F007F8002803D1641CA642F6DCEE
:104F3000002070BD38B50C460B46054612A2012173
:104F4000FFF7B4FF22462421284600F0DFFB044689
:104F500010222021284600F0D9FB204312D1002442
:104F6000A968012088476A462021284600F01EFBD8
:104F7000002807D19DF80010C90603D5641C142C25
:104F8000EED3064838BD000065726173696E672014
:104F9000736563746F722025640D0A00040000803D
:104FA0002DE9FC5F0646DDE90D9A1F4693460D4646
:104FB0005FEA0A0020D17B4C0DB1012D0BD1BBF172
:104FC000000F04D0002F02DDB7F5F85F02D92346A9
:104FD00075A20CE00DB1022D0ED10C9828B1B9F1DB
:104FE000000F02DDB9F5807F06D9234677A20021A4
:104FF0003046FFF75BFFA3E000246A460E213046EF
:1050000000F0D4FA00286ED19DF8000028B9B168EC
:1050100032208847641C642CEFD39DF8003074A2C2
:1050200001213046FFF742FF9DF80000DFF8748150
:10503000012808F1020801D0032828D170A201211B
:105040003046FFF733FF40222021304600F05EFB60
:10505000B1683220884700246A460E21304600F0AD
:10506000A5FA00286DD19DF8000028B9B16832205A
:105070008847641C642CEFD39DF800305CA20121AA
:105080003046FFF713FF9DF80000012803D0444687
:10509000434663A2ABE70222D021304600F036FB44
:1050A00001226F49304600F037FBC52222213046ED
:1050B00000F02CFB012D0ED0022D15D069A201218C
:1050C0003046FFF7F3FE20221146304600F01EFB6B
:1050D00004002FD117E068A201213046FFF7E6FE59
:1050E00000223E2107E02CE069A201213046FFF7B3
:1050F000DDFE3E2202213046FFF70CFF04001CD0EB
:10510000034668A273E74FF00008B1680A20884799
:1051100001AA2021304600F049FA04000AD19DF886
:105120000400800609D508F10108B8F1640FECD33A
:105130001C4C641C234666A259E7BAF1000F02D04A
:10514000204600F025B90DB1012D10D16BA201212F
:105150003046FFF7ABFE00233A465946304600F092
:105160001AF9040002D003466BA240E70DB1022DEC
:105170000FD175A201213046FFF798FE3E234A4623
:1051800030460C9900F007F9040002D0034674A2DF
:105190002DE7304600F00EFA01223149304600F08A
:1051A000BBFACEE703000080696E76616C6964200B
:1051B000706174636820646174612E204552524F9F
:1051C000523A203078253038580D0A00696E7661E1
:1051D0006C69642063666720646174612E204552A7
:1051E000524F523A203078253038580D0A000000CE
:1051F0006F705F6D6F64653A2025640D0A000000D2
:10520000726573657420616E642064697361626C99
:1052100065204E564D206C6F6164696E670D0A0003
:105220006E6F20444320706F7765722064657465EB
:10523000637465642C206E766D2070726F67726186
:105240006D6D696E672061626F727465642E2045B2
:1052500052524F523A203078253038580D0A00000B
:1052600076C1012066756C6C20657261736520697A
:105270006E204E564D0D0A00657261736520706197
:1052800074636820696E204E564D0D0A00000000C0
:1052900065726173652063666720696E204E564DA6
:1052A0000D0A00006661696C656420746F20657288
:1052B0006173652063666720696E204E564D2E200F
:1052C0004552524F523A203078253038580D0A0056
:1052D0006661696C656420746F2066756C6C20650E
:1052E00072617365204E564D2E204552524F523AF0
:1052F000203078253038580D0A0000007772697424
:10530000696E6720706174636820696E746F204EE7
:10531000564D0D0A000000006661696C65642074DA
:105320006F20777269746520706174636820696E9C
:10533000746F204E564D2E204552524F523A203017
:1053400078253038580D0A0077726974696E6720C5
:1053500063666720696E746F204E564D0D0A00001B
:105360006661696C656420746F207772697465206A
:1053700063666720696E746F204E564D2E2045522D
:10538000524F523A203078253038580D0A0000002C
:105390003CBCBDE8C09F2DE9F0471F4688468146CA
:1053A0001446002511E0802C01D9802600E0264615
:1053B00008EB05013B463246484600F00BF8002852
:1053C00006D1A41B7F1C3544FFB2002CEBDC00206F
:1053D000BDE8F087F8B514460F461E46054617A2ED
:1053E0000121FFF763FD32462421284600F08EF9A3
:1053F000064628464FF480713A46234600F0E8F806
:1054000040EA060404222021284600F07FF92043C8
:1054100012D10024A968012088476A462021284625
:1054200000F0C4F8002807D19DF80010490703D503
:10543000641C142CEED30648F8BD00007772697422
:10544000696E6720736563746F722025640D0A00AE
:10545000040000802DE9F8430F4606460225C16886
:10546000984691462846884704001BD0380A207089
:105470006770CDF80080D6F804C04B462A46214616
:10548000B069E047050007D00A4D3B460AA2022159
:1054900030460095FFF70AFD3169204688472846C7
:1054A000BDE8F88312A200213046FFF7FFFC014857
:1054B000401CF5E7010000806661696C656420743A
:1054C0006F2072656164207265676973746572200C
:1054D00066726F6D203078253034582E2045525238
:1054E0004F523A203078253038580D0A000000001D
:1054F000535457424338365F4552525F414C4C4FEC
:10550000435F4D454D0D0A002DE9F8430D46074612
:105510000526C1689846914630468847040021D048
:10552000FA202070280E6070280CA070280AE07005
:105530002571CDF80080D7F804C04B46324621468D
:10554000B869E047060007D0084E2B4608A20221A2
:1055500038460096FFF7AAFC39692046884730464E
:10556000BDE8F8830148401CFAE700000100008014
:105570006661696C656420746F2072656164207275
:10558000656769737465722066726F6D2030782567
:105590003038582E204552524F523A20307825301C
:1055A00038580D0A00000000FFF754BF0123FFF731
:1055B00051BF000010B504460122044900F0ACF8C8
:1055C000A168BDE810403220084700000CC001204F
:1055D0002DE9F84305460F46981CE9681E4691469A
:1055E00080468847040004D0380A20706770002085
:1055F00007E00F48BDE8F88319F800102218401C96
:105600009170B042F8DB2B6842462146A869984762
:10561000060008D04FF000463B4606A2022128466D
:105620000096FFF743FC2969204688473046E1E7AA
:10563000020000806661696C656420746F20777277
:1056400069746520726567697374657220746F2070
:105650003078253034582E204552524F523A20305F
:1056600078253038580D0A002DE9F84306460D46D6
:10567000581DF1681F4691468046884704000AD0AD
:10568000FA202070280E6070280CA070280AE070A4
:105690002571002007E00F48BDE8F88319F80010D5
:1056A0002218401C5171B842F8DB3368424621464B
:1056B000B0699847070008D04FF000472B4606A274
:1056C000022130460097FFF7F1FB316920468847F9
:1056D0003846E1E7020000806661696C6564207409
:1056E0006F2077726974652072656769737465727B
:1056F00020746F203078253038582E204552524F74
:10570000523A203078253038580D0A0007B5012369
:1057100002AAFFF75DFF0EBD07B5012302AAFFF73E
:10572000A3FF0EBD10B500290AD00878002807D0C5
:1057300005487844FCF71AF8002801D0002010BD75
:105740000248784410BD0000821C00007A1C000052
:1057500010B500290AD00878002807D005487844F9
:10576000FCF704F8002801D0002010BD024878445E
:1057700010BD0000721C00006A1C00004FF0407059
:10578000E1EE100A7047FBF7AABBFBF7E1BC0D1274
:10579000000201FFFF0000000000000005001120D2
:1057A0002F3E51687F8DF8F7F8F8F8F6F6F9F47D9A
:1057B000000000000000000081040D0AA7000000A6
:1057C00000000F19001901025070A424FF7D2D3232
:1057D0003712C8CB010000000A14321E140A055209
:1057E0000000000000000200050AE803E02EDC05CE
:1057F00050001E385012574C438600160006190000
:105800005137968014130F05412F090000640109D8
:1058100040001E9600000000000000000000000094
:105820000000000000090200000000000000410329
:10583000010A0E4A2804080D010F000000007573CC
:105840004032C787030022244C1DA523321432C8DE
:105850005070281464A300321EC8A50F141E3232E3
:10586000A4A4A452000C001E1E0404001800FF5043
:1058700038000F0C171904120A430A4300000000F5
:1058800000000000140005F00000EB0E66E9380689
:10589000C7F9F8B550494E48C88300F00CFB4E4D8F
:1058A000A86B4E49183048624D484D4A80304262DC
:1058B000AA6B14328A624B4A82624B4A0A634B4A91
:1058C0000263454E8036326A4A63494A42637269CE
:1058D00014328A63484A8263414A474B4032D3615B
:1058E0003F4B464CC033DC61AC6B28341463444CF2
:1058F0001C63AC6B1C345463434C5C63746B9463E7
:10590000424A9A63B26B10320260414A404B1360C4
:10591000414B9B691B1D8360404B93607269203231
:10592000CA613E4AC261AA6B24320A623D4A0262DF
:105930003D4848613D48A8613F4F0C223C493C48E6
:10594000B8473D49002008703D48102101713F21B2
:1059500041713A484038C16904221143C16134227F
:1059600038493848B847374C3848E0623848A06171
:10597000384820633848A060384860603848E060A4
:105980003422204637496030B847204636496030D7
:105990004162F0633548A062354820603548206197
:1059A0001D484030C4612C22204632493430B8476B
:1059B0002046314934308162314901613149016207
:1059C000314941602863134930484039C860F8BD07
:1059D000000042120000200605008003050040C0C0
:1059E000012051110500AD020600445904000000D9
:1059F000F0653D0406000D0406001011040004D8F3
:105A0000607B65110500391105009513050001142F
:105A1000050040C10120800405005F1805007513D2
:105A20000500FF120500DE01C235B50E0500E807CE
:105A300006006A0D050011930400080D050040C220
:105A40000120C09C0400780D0500CB0506007B19E1
:105A50000500211B0500311C0500511C05006D1CB3
:105A60000500049A04007D140500E90406008B1C5F
:105A70000500C71D0500D0960400C5100500F10FF4
:105A80000500A910050001020600B807060010B5C0
:105A90000F4988470F48007D81070020002901DA5F
:105AA0000D4988610D490A4A4860086000200124B8
:105AB0004032137B08E00A68520022430A604A68B9
:105AC00052002243401C4A608342F4D810BD8D121C
:105AD000040000090500800B0500000D050038B525
